{
  "_format": "hh-sol-artifact-1",
  "contractName": "SimpleLending",
  "sourceName": "contracts/SimpleLending.sol",
  "abi": [
    {
      "inputs": [
        {
          "internalType": "address",
          "name": "_usdcAddress",
          "type": "address"
        }
      ],
      "stateMutability": "nonpayable",
      "type": "constructor"
    },
    {
      "inputs": [],
      "name": "COLLATERAL_FACTOR",
      "outputs": [
        {
          "internalType": "uint256",
          "name": "",
          "type": "uint256"
        }
      ],
      "stateMutability": "view",
      "type": "function"
    },
    {
      "inputs": [],
      "name": "ETH_TO_USDC_RATE",
      "outputs": [
        {
          "internalType": "uint256",
          "name": "",
          "type": "uint256"
        }
      ],
      "stateMutability": "view",
      "type": "function"
    },
    {
      "inputs": [],
      "name": "INTEREST_RATE",
      "outputs": [
        {
          "internalType": "uint256",
          "name": "",
          "type": "uint256"
        }
      ],
      "stateMutability": "view",
      "type": "function"
    },
    {
      "inputs": [
        {
          "internalType": "uint256",
          "name": "usdcAmount",
          "type": "uint256"
        }
      ],
      "name": "borrowUSDC",
      "outputs": [],
      "stateMutability": "payable",
      "type": "function"
    },
    {
      "inputs": [
        {
          "internalType": "uint256",
          "name": "amount",
          "type": "uint256"
        },
        {
          "internalType": "uint256",
          "name": "timeOfDeposit",
          "type": "uint256"
        }
      ],
      "name": "calculateInterest",
      "outputs": [
        {
          "internalType": "uint256",
          "name": "",
          "type": "uint256"
        }
      ],
      "stateMutability": "view",
      "type": "function"
    },
    {
      "inputs": [],
      "name": "depositETH",
      "outputs": [],
      "stateMutability": "payable",
      "type": "function"
    },
    {
      "inputs": [
        {
          "internalType": "uint256",
          "name": "amount",
          "type": "uint256"
        }
      ],
      "name": "depositUSDC",
      "outputs": [],
      "stateMutability": "nonpayable",
      "type": "function"
    },
    {
      "inputs": [
        {
          "internalType": "address",
          "name": "depositor",
          "type": "address"
        }
      ],
      "name": "getDepositDetails",
      "outputs": [
        {
          "components": [
            {
              "internalType": "uint256",
              "name": "usdcAmount",
              "type": "uint256"
            },
            {
              "internalType": "uint256",
              "name": "ethAmount",
              "type": "uint256"
            },
            {
              "internalType": "uint256",
              "name": "timeOfDeposit",
              "type": "uint256"
            }
          ],
          "internalType": "struct SimpleLending.Deposit",
          "name": "",
          "type": "tuple"
        }
      ],
      "stateMutability": "view",
      "type": "function"
    },
    {
      "inputs": [],
      "name": "usdcToken",
      "outputs": [
        {
          "internalType": "contract IERC20",
          "name": "",
          "type": "address"
        }
      ],
      "stateMutability": "view",
      "type": "function"
    },
    {
      "inputs": [],
      "name": "withdrawFunds",
      "outputs": [],
      "stateMutability": "nonpayable",
      "type": "function"
    }
  ],
  "bytecode": "0x60806040523480156200001157600080fd5b506040516200116e3803806200116e8339818101604052810190620000379190620000e8565b806000806101000a81548173ffffffffffffffffffffffffffffffffffffffff021916908373ffffffffffffffffffffffffffffffffffffffff160217905550506200011a565b600080fd5b600073ffffffffffffffffffffffffffffffffffffffff82169050919050565b6000620000b08262000083565b9050919050565b620000c281620000a3565b8114620000ce57600080fd5b50565b600081519050620000e281620000b7565b92915050565b6000602082840312156200010157620001006200007e565b5b60006200011184828501620000d1565b91505092915050565b611044806200012a6000396000f3fe6080604052600436106100915760003560e01c80635b72a33a116100595780635b72a33a1461016b5780637a9fe9ff14610196578063efdd7c07146101b2578063f6326fb3146101ef578063f688bcfb146101f957610091565b806311eac8551461009657806317f49e05146100c157806324600fc3146100ec57806352608f7f14610103578063573c16f614610140575b600080fd5b3480156100a257600080fd5b506100ab610222565b6040516100b89190610a7c565b60405180910390f35b3480156100cd57600080fd5b506100d6610246565b6040516100e39190610ab0565b60405180910390f35b3480156100f857600080fd5b5061010161024b565b005b34801561010f57600080fd5b5061012a60048036038101906101259190610b0e565b6104dc565b6040516101379190610b8c565b60405180910390f35b34801561014c57600080fd5b50610155610553565b6040516101629190610ab0565b60405180910390f35b34801561017757600080fd5b50610180610559565b60405161018d9190610ab0565b60405180910390f35b6101b060048036038101906101ab9190610bd3565b61055e565b005b3480156101be57600080fd5b506101d960048036038101906101d49190610c00565b61075f565b6040516101e69190610ab0565b60405180910390f35b6101f76107b8565b005b34801561020557600080fd5b50610220600480360381019061021b9190610bd3565b61085a565b005b60008054906101000a900473ffffffffffffffffffffffffffffffffffffffff1681565b609681565b6000600160003373ffffffffffffffffffffffffffffffffffffffff1673ffffffffffffffffffffffffffffffffffffffff168152602001908152602001600020604051806060016040529081600082015481526020016001820154815260200160028201548152505090506000816000015111806102ce575060008160200151115b61030d576040517f08c379a000000000000000000000000000000000000000000000000000000000815260040161030490610c9d565b60405180910390fd5b60006103218260000151836040015161075f565b905060008054906101000a900473ffffffffffffffffffffffffffffffffffffffff1673ffffffffffffffffffffffffffffffffffffffff1663a9059cbb338385600001516103709190610cec565b6040518363ffffffff1660e01b815260040161038d929190610d2f565b6020604051808303816000875af11580156103ac573d6000803e3d6000fd5b505050506040513d601f19601f820116820180604052508101906103d09190610d90565b61040f576040517f08c379a000000000000000000000000000000000000000000000000000000000815260040161040690610e09565b60405180910390fd5b3373ffffffffffffffffffffffffffffffffffffffff166108fc83602001519081150290604051600060405180830381858888f19350505050158015610459573d6000803e3d6000fd5b50604051806060016040528060008152602001600081526020016000815250600160003373ffffffffffffffffffffffffffffffffffffffff1673ffffffffffffffffffffffffffffffffffffffff1681526020019081526020016000206000820151816000015560208201518160010155604082015181600201559050505050565b6104e46109dc565b600160008373ffffffffffffffffffffffffffffffffffffffff1673ffffffffffffffffffffffffffffffffffffffff16815260200190815260200160002060405180606001604052908160008201548152602001600182015481526020016002820154815250509050919050565b610bb881565b605081565b6000610bb8600160003373ffffffffffffffffffffffffffffffffffffffff1673ffffffffffffffffffffffffffffffffffffffff168152602001908152602001600020600101546105b09190610e29565b9050600060646096846105c39190610e29565b6105cd9190610e9a565b905080821015610612576040517f08c379a000000000000000000000000000000000000000000000000000000000815260040161060990610f17565b60405180910390fd5b60008054906101000a900473ffffffffffffffffffffffffffffffffffffffff1673ffffffffffffffffffffffffffffffffffffffff1663a9059cbb33856040518363ffffffff1660e01b815260040161066d929190610d2f565b6020604051808303816000875af115801561068c573d6000803e3d6000fd5b505050506040513d601f19601f820116820180604052508101906106b09190610d90565b6106ef576040517f08c379a00000000000000000000000000000000000000000000000000000000081526004016106e690610f83565b60405180910390fd5b604051806040016040528084815260200134815250600260003373ffffffffffffffffffffffffffffffffffffffff1673ffffffffffffffffffffffffffffffffffffffff1681526020019081526020016000206000820151816000015560208201518160010155905050505050565b600080824261076e9190610fa3565b9050600060646050866107819190610e29565b61078b9190610e9a565b905060006301e1338083836107a09190610e29565b6107aa9190610e9a565b905080935050505092915050565b34600160003373ffffffffffffffffffffffffffffffffffffffff1673ffffffffffffffffffffffffffffffffffffffff168152602001908152602001600020600101600082825461080a9190610cec565b9250508190555042600160003373ffffffffffffffffffffffffffffffffffffffff1673ffffffffffffffffffffffffffffffffffffffff16815260200190815260200160002060020181905550565b60008054906101000a900473ffffffffffffffffffffffffffffffffffffffff1673ffffffffffffffffffffffffffffffffffffffff166323b872dd3330846040518463ffffffff1660e01b81526004016108b793929190610fd7565b6020604051808303816000875af11580156108d6573d6000803e3d6000fd5b505050506040513d601f19601f820116820180604052508101906108fa9190610d90565b610939576040517f08c379a000000000000000000000000000000000000000000000000000000000815260040161093090610f83565b60405180910390fd5b80600160003373ffffffffffffffffffffffffffffffffffffffff1673ffffffffffffffffffffffffffffffffffffffff168152602001908152602001600020600001600082825461098b9190610cec565b9250508190555042600160003373ffffffffffffffffffffffffffffffffffffffff1673ffffffffffffffffffffffffffffffffffffffff1681526020019081526020016000206002018190555050565b60405180606001604052806000815260200160008152602001600081525090565b600073ffffffffffffffffffffffffffffffffffffffff82169050919050565b6000819050919050565b6000610a42610a3d610a38846109fd565b610a1d565b6109fd565b9050919050565b6000610a5482610a27565b9050919050565b6000610a6682610a49565b9050919050565b610a7681610a5b565b82525050565b6000602082019050610a916000830184610a6d565b92915050565b6000819050919050565b610aaa81610a97565b82525050565b6000602082019050610ac56000830184610aa1565b92915050565b600080fd5b6000610adb826109fd565b9050919050565b610aeb81610ad0565b8114610af657600080fd5b50565b600081359050610b0881610ae2565b92915050565b600060208284031215610b2457610b23610acb565b5b6000610b3284828501610af9565b91505092915050565b610b4481610a97565b82525050565b606082016000820151610b606000850182610b3b565b506020820151610b736020850182610b3b565b506040820151610b866040850182610b3b565b50505050565b6000606082019050610ba16000830184610b4a565b92915050565b610bb081610a97565b8114610bbb57600080fd5b50565b600081359050610bcd81610ba7565b92915050565b600060208284031215610be957610be8610acb565b5b6000610bf784828501610bbe565b91505092915050565b60008060408385031215610c1757610c16610acb565b5b6000610c2585828601610bbe565b9250506020610c3685828601610bbe565b9150509250929050565b600082825260208201905092915050565b7f4e6f206465706f73697420666f756e6400000000000000000000000000000000600082015250565b6000610c87601083610c40565b9150610c9282610c51565b602082019050919050565b60006020820190508181036000830152610cb681610c7a565b9050919050565b7f4e487b7100000000000000000000000000000000000000000000000000000000600052601160045260246000fd5b6000610cf782610a97565b9150610d0283610a97565b9250828201905080821115610d1a57610d19610cbd565b5b92915050565b610d2981610ad0565b82525050565b6000604082019050610d446000830185610d20565b610d516020830184610aa1565b9392505050565b60008115159050919050565b610d6d81610d58565b8114610d7857600080fd5b50565b600081519050610d8a81610d64565b92915050565b600060208284031215610da657610da5610acb565b5b6000610db484828501610d7b565b91505092915050565b7f5769746864726177616c206661696c6564000000000000000000000000000000600082015250565b6000610df3601183610c40565b9150610dfe82610dbd565b602082019050919050565b60006020820190508181036000830152610e2281610de6565b9050919050565b6000610e3482610a97565b9150610e3f83610a97565b9250828202610e4d81610a97565b91508282048414831517610e6457610e63610cbd565b5b5092915050565b7f4e487b7100000000000000000000000000000000000000000000000000000000600052601260045260246000fd5b6000610ea582610a97565b9150610eb083610a97565b925082610ec057610ebf610e6b565b5b828204905092915050565b7f496e73756666696369656e7420636f6c6c61746572616c000000000000000000600082015250565b6000610f01601783610c40565b9150610f0c82610ecb565b602082019050919050565b60006020820190508181036000830152610f3081610ef4565b9050919050565b7f5472616e73666572206661696c65640000000000000000000000000000000000600082015250565b6000610f6d600f83610c40565b9150610f7882610f37565b602082019050919050565b60006020820190508181036000830152610f9c81610f60565b9050919050565b6000610fae82610a97565b9150610fb983610a97565b9250828203905081811115610fd157610fd0610cbd565b5b92915050565b6000606082019050610fec6000830186610d20565b610ff96020830185610d20565b6110066040830184610aa1565b94935050505056fea2646970667358221220ac90c7693c26c01a800157d410fc3b5eb87cb4541578f7f35da02cf6dafd7d7064736f6c63430008140033",
  "linkReferences": {},
  "deployedLinkReferences": {}
}