{"contracts/SimpleLending.sol":{"SimpleLending":{"abi":[{"inputs":[{"internalType":"address","name":"_usdcAddress","type":"address"}],"stateMutability":"nonpayable","type":"constructor"},{"inputs":[],"name":"COLLATERAL_FACTOR","outputs":[{"internalType":"uint256","name":"","type":"uint256"}],"stateMutability":"view","type":"function"},{"inputs":[],"name":"ETH_TO_USDC_RATE","outputs":[{"internalType":"uint256","name":"","type":"uint256"}],"stateMutability":"view","type":"function"},{"inputs":[],"name":"INTEREST_RATE","outputs":[{"internalType":"uint256","name":"","type":"uint256"}],"stateMutability":"view","type":"function"},{"inputs":[{"internalType":"uint256","name":"usdcAmount","type":"uint256"}],"name":"borrowUSDC","outputs":[],"stateMutability":"payable","type":"function"},{"inputs":[{"internalType":"uint256","name":"amount","type":"uint256"},{"internalType":"uint256","name":"timeOfDeposit","type":"uint256"}],"name":"calculateInterest","outputs":[{"internalType":"uint256","name":"","type":"uint256"}],"stateMutability":"view","type":"function"},{"inputs":[],"name":"depositETH","outputs":[],"stateMutability":"payable","type":"function"},{"inputs":[{"internalType":"uint256","name":"amount","type":"uint256"}],"name":"depositUSDC","outputs":[],"stateMutability":"nonpayable","type":"function"},{"inputs":[{"internalType":"address","name":"depositor","type":"address"}],"name":"getDepositDetails","outputs":[{"components":[{"internalType":"uint256","name":"usdcAmount","type":"uint256"},{"internalType":"uint256","name":"ethAmount","type":"uint256"},{"internalType":"uint256","name":"timeOfDeposit","type":"uint256"}],"internalType":"struct SimpleLending.Deposit","name":"","type":"tuple"}],"stateMutability":"view","type":"function"},{"inputs":[],"name":"usdcToken","outputs":[{"internalType":"contract IERC20","name":"","type":"address"}],"stateMutability":"view","type":"function"},{"inputs":[],"name":"withdrawFunds","outputs":[],"stateMutability":"nonpayable","type":"function"}],"evm":{"bytecode":{"linkReferences":{},"object":"60806040523480156200001157600080fd5b506040516200116e3803806200116e8339818101604052810190620000379190620000e8565b806000806101000a81548173ffffffffffffffffffffffffffffffffffffffff021916908373ffffffffffffffffffffffffffffffffffffffff160217905550506200011a565b600080fd5b600073ffffffffffffffffffffffffffffffffffffffff82169050919050565b6000620000b08262000083565b9050919050565b620000c281620000a3565b8114620000ce57600080fd5b50565b600081519050620000e281620000b7565b92915050565b6000602082840312156200010157620001006200007e565b5b60006200011184828501620000d1565b91505092915050565b611044806200012a6000396000f3fe6080604052600436106100915760003560e01c80635b72a33a116100595780635b72a33a1461016b5780637a9fe9ff14610196578063efdd7c07146101b2578063f6326fb3146101ef578063f688bcfb146101f957610091565b806311eac8551461009657806317f49e05146100c157806324600fc3146100ec57806352608f7f14610103578063573c16f614610140575b600080fd5b3480156100a257600080fd5b506100ab610222565b6040516100b89190610a7c565b60405180910390f35b3480156100cd57600080fd5b506100d6610246565b6040516100e39190610ab0565b60405180910390f35b3480156100f857600080fd5b5061010161024b565b005b34801561010f57600080fd5b5061012a60048036038101906101259190610b0e565b6104dc565b6040516101379190610b8c565b60405180910390f35b34801561014c57600080fd5b50610155610553565b6040516101629190610ab0565b60405180910390f35b34801561017757600080fd5b50610180610559565b60405161018d9190610ab0565b60405180910390f35b6101b060048036038101906101ab9190610bd3565b61055e565b005b3480156101be57600080fd5b506101d960048036038101906101d49190610c00565b61075f565b6040516101e69190610ab0565b60405180910390f35b6101f76107b8565b005b34801561020557600080fd5b50610220600480360381019061021b9190610bd3565b61085a565b005b60008054906101000a900473ffffffffffffffffffffffffffffffffffffffff1681565b609681565b6000600160003373ffffffffffffffffffffffffffffffffffffffff1673ffffffffffffffffffffffffffffffffffffffff168152602001908152602001600020604051806060016040529081600082015481526020016001820154815260200160028201548152505090506000816000015111806102ce575060008160200151115b61030d576040517f08c379a000000000000000000000000000000000000000000000000000000000815260040161030490610c9d565b60405180910390fd5b60006103218260000151836040015161075f565b905060008054906101000a900473ffffffffffffffffffffffffffffffffffffffff1673ffffffffffffffffffffffffffffffffffffffff1663a9059cbb338385600001516103709190610cec565b6040518363ffffffff1660e01b815260040161038d929190610d2f565b6020604051808303816000875af11580156103ac573d6000803e3d6000fd5b505050506040513d601f19601f820116820180604052508101906103d09190610d90565b61040f576040517f08c379a000000000000000000000000000000000000000000000000000000000815260040161040690610e09565b60405180910390fd5b3373ffffffffffffffffffffffffffffffffffffffff166108fc83602001519081150290604051600060405180830381858888f19350505050158015610459573d6000803e3d6000fd5b50604051806060016040528060008152602001600081526020016000815250600160003373ffffffffffffffffffffffffffffffffffffffff1673ffffffffffffffffffffffffffffffffffffffff1681526020019081526020016000206000820151816000015560208201518160010155604082015181600201559050505050565b6104e46109dc565b600160008373ffffffffffffffffffffffffffffffffffffffff1673ffffffffffffffffffffffffffffffffffffffff16815260200190815260200160002060405180606001604052908160008201548152602001600182015481526020016002820154815250509050919050565b610bb881565b605081565b6000610bb8600160003373ffffffffffffffffffffffffffffffffffffffff1673ffffffffffffffffffffffffffffffffffffffff168152602001908152602001600020600101546105b09190610e29565b9050600060646096846105c39190610e29565b6105cd9190610e9a565b905080821015610612576040517f08c379a000000000000000000000000000000000000000000000000000000000815260040161060990610f17565b60405180910390fd5b60008054906101000a900473ffffffffffffffffffffffffffffffffffffffff1673ffffffffffffffffffffffffffffffffffffffff1663a9059cbb33856040518363ffffffff1660e01b815260040161066d929190610d2f565b6020604051808303816000875af115801561068c573d6000803e3d6000fd5b505050506040513d601f19601f820116820180604052508101906106b09190610d90565b6106ef576040517f08c379a00000000000000000000000000000000000000000000000000000000081526004016106e690610f83565b60405180910390fd5b604051806040016040528084815260200134815250600260003373ffffffffffffffffffffffffffffffffffffffff1673ffffffffffffffffffffffffffffffffffffffff1681526020019081526020016000206000820151816000015560208201518160010155905050505050565b600080824261076e9190610fa3565b9050600060646050866107819190610e29565b61078b9190610e9a565b905060006301e1338083836107a09190610e29565b6107aa9190610e9a565b905080935050505092915050565b34600160003373ffffffffffffffffffffffffffffffffffffffff1673ffffffffffffffffffffffffffffffffffffffff168152602001908152602001600020600101600082825461080a9190610cec565b9250508190555042600160003373ffffffffffffffffffffffffffffffffffffffff1673ffffffffffffffffffffffffffffffffffffffff16815260200190815260200160002060020181905550565b60008054906101000a900473ffffffffffffffffffffffffffffffffffffffff1673ffffffffffffffffffffffffffffffffffffffff166323b872dd3330846040518463ffffffff1660e01b81526004016108b793929190610fd7565b6020604051808303816000875af11580156108d6573d6000803e3d6000fd5b505050506040513d601f19601f820116820180604052508101906108fa9190610d90565b610939576040517f08c379a000000000000000000000000000000000000000000000000000000000815260040161093090610f83565b60405180910390fd5b80600160003373ffffffffffffffffffffffffffffffffffffffff1673ffffffffffffffffffffffffffffffffffffffff168152602001908152602001600020600001600082825461098b9190610cec565b9250508190555042600160003373ffffffffffffffffffffffffffffffffffffffff1673ffffffffffffffffffffffffffffffffffffffff1681526020019081526020016000206002018190555050565b60405180606001604052806000815260200160008152602001600081525090565b600073ffffffffffffffffffffffffffffffffffffffff82169050919050565b6000819050919050565b6000610a42610a3d610a38846109fd565b610a1d565b6109fd565b9050919050565b6000610a5482610a27565b9050919050565b6000610a6682610a49565b9050919050565b610a7681610a5b565b82525050565b6000602082019050610a916000830184610a6d565b92915050565b6000819050919050565b610aaa81610a97565b82525050565b6000602082019050610ac56000830184610aa1565b92915050565b600080fd5b6000610adb826109fd565b9050919050565b610aeb81610ad0565b8114610af657600080fd5b50565b600081359050610b0881610ae2565b92915050565b600060208284031215610b2457610b23610acb565b5b6000610b3284828501610af9565b91505092915050565b610b4481610a97565b82525050565b606082016000820151610b606000850182610b3b565b506020820151610b736020850182610b3b565b506040820151610b866040850182610b3b565b50505050565b6000606082019050610ba16000830184610b4a565b92915050565b610bb081610a97565b8114610bbb57600080fd5b50565b600081359050610bcd81610ba7565b92915050565b600060208284031215610be957610be8610acb565b5b6000610bf784828501610bbe565b91505092915050565b60008060408385031215610c1757610c16610acb565b5b6000610c2585828601610bbe565b9250506020610c3685828601610bbe565b9150509250929050565b600082825260208201905092915050565b7f4e6f206465706f73697420666f756e6400000000000000000000000000000000600082015250565b6000610c87601083610c40565b9150610c9282610c51565b602082019050919050565b60006020820190508181036000830152610cb681610c7a565b9050919050565b7f4e487b7100000000000000000000000000000000000000000000000000000000600052601160045260246000fd5b6000610cf782610a97565b9150610d0283610a97565b9250828201905080821115610d1a57610d19610cbd565b5b92915050565b610d2981610ad0565b82525050565b6000604082019050610d446000830185610d20565b610d516020830184610aa1565b9392505050565b60008115159050919050565b610d6d81610d58565b8114610d7857600080fd5b50565b600081519050610d8a81610d64565b92915050565b600060208284031215610da657610da5610acb565b5b6000610db484828501610d7b565b91505092915050565b7f5769746864726177616c206661696c6564000000000000000000000000000000600082015250565b6000610df3601183610c40565b9150610dfe82610dbd565b602082019050919050565b60006020820190508181036000830152610e2281610de6565b9050919050565b6000610e3482610a97565b9150610e3f83610a97565b9250828202610e4d81610a97565b91508282048414831517610e6457610e63610cbd565b5b5092915050565b7f4e487b7100000000000000000000000000000000000000000000000000000000600052601260045260246000fd5b6000610ea582610a97565b9150610eb083610a97565b925082610ec057610ebf610e6b565b5b828204905092915050565b7f496e73756666696369656e7420636f6c6c61746572616c000000000000000000600082015250565b6000610f01601783610c40565b9150610f0c82610ecb565b602082019050919050565b60006020820190508181036000830152610f3081610ef4565b9050919050565b7f5472616e73666572206661696c65640000000000000000000000000000000000600082015250565b6000610f6d600f83610c40565b9150610f7882610f37565b602082019050919050565b60006020820190508181036000830152610f9c81610f60565b9050919050565b6000610fae82610a97565b9150610fb983610a97565b9250828203905081811115610fd157610fd0610cbd565b5b92915050565b6000606082019050610fec6000830186610d20565b610ff96020830185610d20565b6110066040830184610aa1565b94935050505056fea2646970667358221220ac90c7693c26c01a800157d410fc3b5eb87cb4541578f7f35da02cf6dafd7d7064736f6c63430008140033","opcodes":"PUSH1 0x80 PUSH1 0x40 MSTORE CALLVALUE DUP1 ISZERO PUSH3 0x11 JUMPI PUSH1 0x0 DUP1 REVERT JUMPDEST POP PUSH1 0x40 MLOAD PUSH3 0x116E CODESIZE SUB DUP1 PUSH3 0x116E DUP4 CODECOPY DUP2 DUP2 ADD PUSH1 0x40 MSTORE DUP2 ADD SWAP1 PUSH3 0x37 SWAP2 SWAP1 PUSH3 0xE8 JUMP JUMPDEST DUP1 PUSH1 0x0 DUP1 PUSH2 0x100 EXP DUP2 SLOAD DUP2 PUSH20 0xFFFFFFFFFFFFFFFFFFFFFFFFFFFFFFFFFFFFFFFF MUL NOT AND SWAP1 DUP4 PUSH20 0xFFFFFFFFFFFFFFFFFFFFFFFFFFFFFFFFFFFFFFFF AND MUL OR SWAP1 SSTORE POP POP PUSH3 0x11A JUMP JUMPDEST PUSH1 0x0 DUP1 REVERT JUMPDEST PUSH1 0x0 PUSH20 0xFFFFFFFFFFFFFFFFFFFFFFFFFFFFFFFFFFFFFFFF DUP3 AND SWAP1 POP SWAP2 SWAP1 POP JUMP JUMPDEST PUSH1 0x0 PUSH3 0xB0 DUP3 PUSH3 0x83 JUMP JUMPDEST SWAP1 POP SWAP2 SWAP1 POP JUMP JUMPDEST PUSH3 0xC2 DUP2 PUSH3 0xA3 JUMP JUMPDEST DUP2 EQ PUSH3 0xCE JUMPI PUSH1 0x0 DUP1 REVERT JUMPDEST POP JUMP JUMPDEST PUSH1 0x0 DUP2 MLOAD SWAP1 POP PUSH3 0xE2 DUP2 PUSH3 0xB7 JUMP JUMPDEST SWAP3 SWAP2 POP POP JUMP JUMPDEST PUSH1 0x0 PUSH1 0x20 DUP3 DUP5 SUB SLT ISZERO PUSH3 0x101 JUMPI PUSH3 0x100 PUSH3 0x7E JUMP JUMPDEST JUMPDEST PUSH1 0x0 PUSH3 0x111 DUP5 DUP3 DUP6 ADD PUSH3 0xD1 JUMP JUMPDEST SWAP2 POP POP SWAP3 SWAP2 POP POP JUMP JUMPDEST PUSH2 0x1044 DUP1 PUSH3 0x12A PUSH1 0x0 CODECOPY PUSH1 0x0 RETURN INVALID PUSH1 0x80 PUSH1 0x40 MSTORE PUSH1 0x4 CALLDATASIZE LT PUSH2 0x91 JUMPI PUSH1 0x0 CALLDATALOAD PUSH1 0xE0 SHR DUP1 PUSH4 0x5B72A33A GT PUSH2 0x59 JUMPI DUP1 PUSH4 0x5B72A33A EQ PUSH2 0x16B JUMPI DUP1 PUSH4 0x7A9FE9FF EQ PUSH2 0x196 JUMPI DUP1 PUSH4 0xEFDD7C07 EQ PUSH2 0x1B2 JUMPI DUP1 PUSH4 0xF6326FB3 EQ PUSH2 0x1EF JUMPI DUP1 PUSH4 0xF688BCFB EQ PUSH2 0x1F9 JUMPI PUSH2 0x91 JUMP JUMPDEST DUP1 PUSH4 0x11EAC855 EQ PUSH2 0x96 JUMPI DUP1 PUSH4 0x17F49E05 EQ PUSH2 0xC1 JUMPI DUP1 PUSH4 0x24600FC3 EQ PUSH2 0xEC JUMPI DUP1 PUSH4 0x52608F7F EQ PUSH2 0x103 JUMPI DUP1 PUSH4 0x573C16F6 EQ PUSH2 0x140 JUMPI JUMPDEST PUSH1 0x0 DUP1 REVERT JUMPDEST CALLVALUE DUP1 ISZERO PUSH2 0xA2 JUMPI PUSH1 0x0 DUP1 REVERT JUMPDEST POP PUSH2 0xAB PUSH2 0x222 JUMP JUMPDEST PUSH1 0x40 MLOAD PUSH2 0xB8 SWAP2 SWAP1 PUSH2 0xA7C JUMP JUMPDEST PUSH1 0x40 MLOAD DUP1 SWAP2 SUB SWAP1 RETURN JUMPDEST CALLVALUE DUP1 ISZERO PUSH2 0xCD JUMPI PUSH1 0x0 DUP1 REVERT JUMPDEST POP PUSH2 0xD6 PUSH2 0x246 JUMP JUMPDEST PUSH1 0x40 MLOAD PUSH2 0xE3 SWAP2 SWAP1 PUSH2 0xAB0 JUMP JUMPDEST PUSH1 0x40 MLOAD DUP1 SWAP2 SUB SWAP1 RETURN JUMPDEST CALLVALUE DUP1 ISZERO PUSH2 0xF8 JUMPI PUSH1 0x0 DUP1 REVERT JUMPDEST POP PUSH2 0x101 PUSH2 0x24B JUMP JUMPDEST STOP JUMPDEST CALLVALUE DUP1 ISZERO PUSH2 0x10F JUMPI PUSH1 0x0 DUP1 REVERT JUMPDEST POP PUSH2 0x12A PUSH1 0x4 DUP1 CALLDATASIZE SUB DUP2 ADD SWAP1 PUSH2 0x125 SWAP2 SWAP1 PUSH2 0xB0E JUMP JUMPDEST PUSH2 0x4DC JUMP JUMPDEST PUSH1 0x40 MLOAD PUSH2 0x137 SWAP2 SWAP1 PUSH2 0xB8C JUMP JUMPDEST PUSH1 0x40 MLOAD DUP1 SWAP2 SUB SWAP1 RETURN JUMPDEST CALLVALUE DUP1 ISZERO PUSH2 0x14C JUMPI PUSH1 0x0 DUP1 REVERT JUMPDEST POP PUSH2 0x155 PUSH2 0x553 JUMP JUMPDEST PUSH1 0x40 MLOAD PUSH2 0x162 SWAP2 SWAP1 PUSH2 0xAB0 JUMP JUMPDEST PUSH1 0x40 MLOAD DUP1 SWAP2 SUB SWAP1 RETURN JUMPDEST CALLVALUE DUP1 ISZERO PUSH2 0x177 JUMPI PUSH1 0x0 DUP1 REVERT JUMPDEST POP PUSH2 0x180 PUSH2 0x559 JUMP JUMPDEST PUSH1 0x40 MLOAD PUSH2 0x18D SWAP2 SWAP1 PUSH2 0xAB0 JUMP JUMPDEST PUSH1 0x40 MLOAD DUP1 SWAP2 SUB SWAP1 RETURN JUMPDEST PUSH2 0x1B0 PUSH1 0x4 DUP1 CALLDATASIZE SUB DUP2 ADD SWAP1 PUSH2 0x1AB SWAP2 SWAP1 PUSH2 0xBD3 JUMP JUMPDEST PUSH2 0x55E JUMP JUMPDEST STOP JUMPDEST CALLVALUE DUP1 ISZERO PUSH2 0x1BE JUMPI PUSH1 0x0 DUP1 REVERT JUMPDEST POP PUSH2 0x1D9 PUSH1 0x4 DUP1 CALLDATASIZE SUB DUP2 ADD SWAP1 PUSH2 0x1D4 SWAP2 SWAP1 PUSH2 0xC00 JUMP JUMPDEST PUSH2 0x75F JUMP JUMPDEST PUSH1 0x40 MLOAD PUSH2 0x1E6 SWAP2 SWAP1 PUSH2 0xAB0 JUMP JUMPDEST PUSH1 0x40 MLOAD DUP1 SWAP2 SUB SWAP1 RETURN JUMPDEST PUSH2 0x1F7 PUSH2 0x7B8 JUMP JUMPDEST STOP JUMPDEST CALLVALUE DUP1 ISZERO PUSH2 0x205 JUMPI PUSH1 0x0 DUP1 REVERT JUMPDEST POP PUSH2 0x220 PUSH1 0x4 DUP1 CALLDATASIZE SUB DUP2 ADD SWAP1 PUSH2 0x21B SWAP2 SWAP1 PUSH2 0xBD3 JUMP JUMPDEST PUSH2 0x85A JUMP JUMPDEST STOP JUMPDEST PUSH1 0x0 DUP1 SLOAD SWAP1 PUSH2 0x100 EXP SWAP1 DIV PUSH20 0xFFFFFFFFFFFFFFFFFFFFFFFFFFFFFFFFFFFFFFFF AND DUP2 JUMP JUMPDEST PUSH1 0x96 DUP2 JUMP JUMPDEST PUSH1 0x0 PUSH1 0x1 PUSH1 0x0 CALLER PUSH20 0xFFFFFFFFFFFFFFFFFFFFFFFFFFFFFFFFFFFFFFFF AND PUSH20 0xFFFFFFFFFFFFFFFFFFFFFFFFFFFFFFFFFFFFFFFF AND DUP2 MSTORE PUSH1 0x20 ADD SWAP1 DUP2 MSTORE PUSH1 0x20 ADD PUSH1 0x0 KECCAK256 PUSH1 0x40 MLOAD DUP1 PUSH1 0x60 ADD PUSH1 0x40 MSTORE SWAP1 DUP2 PUSH1 0x0 DUP3 ADD SLOAD DUP2 MSTORE PUSH1 0x20 ADD PUSH1 0x1 DUP3 ADD SLOAD DUP2 MSTORE PUSH1 0x20 ADD PUSH1 0x2 DUP3 ADD SLOAD DUP2 MSTORE POP POP SWAP1 POP PUSH1 0x0 DUP2 PUSH1 0x0 ADD MLOAD GT DUP1 PUSH2 0x2CE JUMPI POP PUSH1 0x0 DUP2 PUSH1 0x20 ADD MLOAD GT JUMPDEST PUSH2 0x30D JUMPI PUSH1 0x40 MLOAD PUSH32 0x8C379A000000000000000000000000000000000000000000000000000000000 DUP2 MSTORE PUSH1 0x4 ADD PUSH2 0x304 SWAP1 PUSH2 0xC9D JUMP JUMPDEST PUSH1 0x40 MLOAD DUP1 SWAP2 SUB SWAP1 REVERT JUMPDEST PUSH1 0x0 PUSH2 0x321 DUP3 PUSH1 0x0 ADD MLOAD DUP4 PUSH1 0x40 ADD MLOAD PUSH2 0x75F JUMP JUMPDEST SWAP1 POP PUSH1 0x0 DUP1 SLOAD SWAP1 PUSH2 0x100 EXP SWAP1 DIV PUSH20 0xFFFFFFFFFFFFFFFFFFFFFFFFFFFFFFFFFFFFFFFF AND PUSH20 0xFFFFFFFFFFFFFFFFFFFFFFFFFFFFFFFFFFFFFFFF AND PUSH4 0xA9059CBB CALLER DUP4 DUP6 PUSH1 0x0 ADD MLOAD PUSH2 0x370 SWAP2 SWAP1 PUSH2 0xCEC JUMP JUMPDEST PUSH1 0x40 MLOAD DUP4 PUSH4 0xFFFFFFFF AND PUSH1 0xE0 SHL DUP2 MSTORE PUSH1 0x4 ADD PUSH2 0x38D SWAP3 SWAP2 SWAP1 PUSH2 0xD2F JUMP JUMPDEST PUSH1 0x20 PUSH1 0x40 MLOAD DUP1 DUP4 SUB DUP2 PUSH1 0x0 DUP8 GAS CALL ISZERO DUP1 ISZERO PUSH2 0x3AC JUMPI RETURNDATASIZE PUSH1 0x0 DUP1 RETURNDATACOPY RETURNDATASIZE PUSH1 0x0 REVERT JUMPDEST POP POP POP POP PUSH1 0x40 MLOAD RETURNDATASIZE PUSH1 0x1F NOT PUSH1 0x1F DUP3 ADD AND DUP3 ADD DUP1 PUSH1 0x40 MSTORE POP DUP2 ADD SWAP1 PUSH2 0x3D0 SWAP2 SWAP1 PUSH2 0xD90 JUMP JUMPDEST PUSH2 0x40F JUMPI PUSH1 0x40 MLOAD PUSH32 0x8C379A000000000000000000000000000000000000000000000000000000000 DUP2 MSTORE PUSH1 0x4 ADD PUSH2 0x406 SWAP1 PUSH2 0xE09 JUMP JUMPDEST PUSH1 0x40 MLOAD DUP1 SWAP2 SUB SWAP1 REVERT JUMPDEST CALLER PUSH20 0xFFFFFFFFFFFFFFFFFFFFFFFFFFFFFFFFFFFFFFFF AND PUSH2 0x8FC DUP4 PUSH1 0x20 ADD MLOAD SWAP1 DUP2 ISZERO MUL SWAP1 PUSH1 0x40 MLOAD PUSH1 0x0 PUSH1 0x40 MLOAD DUP1 DUP4 SUB DUP2 DUP6 DUP9 DUP9 CALL SWAP4 POP POP POP POP ISZERO DUP1 ISZERO PUSH2 0x459 JUMPI RETURNDATASIZE PUSH1 0x0 DUP1 RETURNDATACOPY RETURNDATASIZE PUSH1 0x0 REVERT JUMPDEST POP PUSH1 0x40 MLOAD DUP1 PUSH1 0x60 ADD PUSH1 0x40 MSTORE DUP1 PUSH1 0x0 DUP2 MSTORE PUSH1 0x20 ADD PUSH1 0x0 DUP2 MSTORE PUSH1 0x20 ADD PUSH1 0x0 DUP2 MSTORE POP PUSH1 0x1 PUSH1 0x0 CALLER PUSH20 0xFFFFFFFFFFFFFFFFFFFFFFFFFFFFFFFFFFFFFFFF AND PUSH20 0xFFFFFFFFFFFFFFFFFFFFFFFFFFFFFFFFFFFFFFFF AND DUP2 MSTORE PUSH1 0x20 ADD SWAP1 DUP2 MSTORE PUSH1 0x20 ADD PUSH1 0x0 KECCAK256 PUSH1 0x0 DUP3 ADD MLOAD DUP2 PUSH1 0x0 ADD SSTORE PUSH1 0x20 DUP3 ADD MLOAD DUP2 PUSH1 0x1 ADD SSTORE PUSH1 0x40 DUP3 ADD MLOAD DUP2 PUSH1 0x2 ADD SSTORE SWAP1 POP POP POP POP JUMP JUMPDEST PUSH2 0x4E4 PUSH2 0x9DC JUMP JUMPDEST PUSH1 0x1 PUSH1 0x0 DUP4 PUSH20 0xFFFFFFFFFFFFFFFFFFFFFFFFFFFFFFFFFFFFFFFF AND PUSH20 0xFFFFFFFFFFFFFFFFFFFFFFFFFFFFFFFFFFFFFFFF AND DUP2 MSTORE PUSH1 0x20 ADD SWAP1 DUP2 MSTORE PUSH1 0x20 ADD PUSH1 0x0 KECCAK256 PUSH1 0x40 MLOAD DUP1 PUSH1 0x60 ADD PUSH1 0x40 MSTORE SWAP1 DUP2 PUSH1 0x0 DUP3 ADD SLOAD DUP2 MSTORE PUSH1 0x20 ADD PUSH1 0x1 DUP3 ADD SLOAD DUP2 MSTORE PUSH1 0x20 ADD PUSH1 0x2 DUP3 ADD SLOAD DUP2 MSTORE POP POP SWAP1 POP SWAP2 SWAP1 POP JUMP JUMPDEST PUSH2 0xBB8 DUP2 JUMP JUMPDEST PUSH1 0x50 DUP2 JUMP JUMPDEST PUSH1 0x0 PUSH2 0xBB8 PUSH1 0x1 PUSH1 0x0 CALLER PUSH20 0xFFFFFFFFFFFFFFFFFFFFFFFFFFFFFFFFFFFFFFFF AND PUSH20 0xFFFFFFFFFFFFFFFFFFFFFFFFFFFFFFFFFFFFFFFF AND DUP2 MSTORE PUSH1 0x20 ADD SWAP1 DUP2 MSTORE PUSH1 0x20 ADD PUSH1 0x0 KECCAK256 PUSH1 0x1 ADD SLOAD PUSH2 0x5B0 SWAP2 SWAP1 PUSH2 0xE29 JUMP JUMPDEST SWAP1 POP PUSH1 0x0 PUSH1 0x64 PUSH1 0x96 DUP5 PUSH2 0x5C3 SWAP2 SWAP1 PUSH2 0xE29 JUMP JUMPDEST PUSH2 0x5CD SWAP2 SWAP1 PUSH2 0xE9A JUMP JUMPDEST SWAP1 POP DUP1 DUP3 LT ISZERO PUSH2 0x612 JUMPI PUSH1 0x40 MLOAD PUSH32 0x8C379A000000000000000000000000000000000000000000000000000000000 DUP2 MSTORE PUSH1 0x4 ADD PUSH2 0x609 SWAP1 PUSH2 0xF17 JUMP JUMPDEST PUSH1 0x40 MLOAD DUP1 SWAP2 SUB SWAP1 REVERT JUMPDEST PUSH1 0x0 DUP1 SLOAD SWAP1 PUSH2 0x100 EXP SWAP1 DIV PUSH20 0xFFFFFFFFFFFFFFFFFFFFFFFFFFFFFFFFFFFFFFFF AND PUSH20 0xFFFFFFFFFFFFFFFFFFFFFFFFFFFFFFFFFFFFFFFF AND PUSH4 0xA9059CBB CALLER DUP6 PUSH1 0x40 MLOAD DUP4 PUSH4 0xFFFFFFFF AND PUSH1 0xE0 SHL DUP2 MSTORE PUSH1 0x4 ADD PUSH2 0x66D SWAP3 SWAP2 SWAP1 PUSH2 0xD2F JUMP JUMPDEST PUSH1 0x20 PUSH1 0x40 MLOAD DUP1 DUP4 SUB DUP2 PUSH1 0x0 DUP8 GAS CALL ISZERO DUP1 ISZERO PUSH2 0x68C JUMPI RETURNDATASIZE PUSH1 0x0 DUP1 RETURNDATACOPY RETURNDATASIZE PUSH1 0x0 REVERT JUMPDEST POP POP POP POP PUSH1 0x40 MLOAD RETURNDATASIZE PUSH1 0x1F NOT PUSH1 0x1F DUP3 ADD AND DUP3 ADD DUP1 PUSH1 0x40 MSTORE POP DUP2 ADD SWAP1 PUSH2 0x6B0 SWAP2 SWAP1 PUSH2 0xD90 JUMP JUMPDEST PUSH2 0x6EF JUMPI PUSH1 0x40 MLOAD PUSH32 0x8C379A000000000000000000000000000000000000000000000000000000000 DUP2 MSTORE PUSH1 0x4 ADD PUSH2 0x6E6 SWAP1 PUSH2 0xF83 JUMP JUMPDEST PUSH1 0x40 MLOAD DUP1 SWAP2 SUB SWAP1 REVERT JUMPDEST PUSH1 0x40 MLOAD DUP1 PUSH1 0x40 ADD PUSH1 0x40 MSTORE DUP1 DUP5 DUP2 MSTORE PUSH1 0x20 ADD CALLVALUE DUP2 MSTORE POP PUSH1 0x2 PUSH1 0x0 CALLER PUSH20 0xFFFFFFFFFFFFFFFFFFFFFFFFFFFFFFFFFFFFFFFF AND PUSH20 0xFFFFFFFFFFFFFFFFFFFFFFFFFFFFFFFFFFFFFFFF AND DUP2 MSTORE PUSH1 0x20 ADD SWAP1 DUP2 MSTORE PUSH1 0x20 ADD PUSH1 0x0 KECCAK256 PUSH1 0x0 DUP3 ADD MLOAD DUP2 PUSH1 0x0 ADD SSTORE PUSH1 0x20 DUP3 ADD MLOAD DUP2 PUSH1 0x1 ADD SSTORE SWAP1 POP POP POP POP POP JUMP JUMPDEST PUSH1 0x0 DUP1 DUP3 TIMESTAMP PUSH2 0x76E SWAP2 SWAP1 PUSH2 0xFA3 JUMP JUMPDEST SWAP1 POP PUSH1 0x0 PUSH1 0x64 PUSH1 0x50 DUP7 PUSH2 0x781 SWAP2 SWAP1 PUSH2 0xE29 JUMP JUMPDEST PUSH2 0x78B SWAP2 SWAP1 PUSH2 0xE9A JUMP JUMPDEST SWAP1 POP PUSH1 0x0 PUSH4 0x1E13380 DUP4 DUP4 PUSH2 0x7A0 SWAP2 SWAP1 PUSH2 0xE29 JUMP JUMPDEST PUSH2 0x7AA SWAP2 SWAP1 PUSH2 0xE9A JUMP JUMPDEST SWAP1 POP DUP1 SWAP4 POP POP POP POP SWAP3 SWAP2 POP POP JUMP JUMPDEST CALLVALUE PUSH1 0x1 PUSH1 0x0 CALLER PUSH20 0xFFFFFFFFFFFFFFFFFFFFFFFFFFFFFFFFFFFFFFFF AND PUSH20 0xFFFFFFFFFFFFFFFFFFFFFFFFFFFFFFFFFFFFFFFF AND DUP2 MSTORE PUSH1 0x20 ADD SWAP1 DUP2 MSTORE PUSH1 0x20 ADD PUSH1 0x0 KECCAK256 PUSH1 0x1 ADD PUSH1 0x0 DUP3 DUP3 SLOAD PUSH2 0x80A SWAP2 SWAP1 PUSH2 0xCEC JUMP JUMPDEST SWAP3 POP POP DUP2 SWAP1 SSTORE POP TIMESTAMP PUSH1 0x1 PUSH1 0x0 CALLER PUSH20 0xFFFFFFFFFFFFFFFFFFFFFFFFFFFFFFFFFFFFFFFF AND PUSH20 0xFFFFFFFFFFFFFFFFFFFFFFFFFFFFFFFFFFFFFFFF AND DUP2 MSTORE PUSH1 0x20 ADD SWAP1 DUP2 MSTORE PUSH1 0x20 ADD PUSH1 0x0 KECCAK256 PUSH1 0x2 ADD DUP2 SWAP1 SSTORE POP JUMP JUMPDEST PUSH1 0x0 DUP1 SLOAD SWAP1 PUSH2 0x100 EXP SWAP1 DIV PUSH20 0xFFFFFFFFFFFFFFFFFFFFFFFFFFFFFFFFFFFFFFFF AND PUSH20 0xFFFFFFFFFFFFFFFFFFFFFFFFFFFFFFFFFFFFFFFF AND PUSH4 0x23B872DD CALLER ADDRESS DUP5 PUSH1 0x40 MLOAD DUP5 PUSH4 0xFFFFFFFF AND PUSH1 0xE0 SHL DUP2 MSTORE PUSH1 0x4 ADD PUSH2 0x8B7 SWAP4 SWAP3 SWAP2 SWAP1 PUSH2 0xFD7 JUMP JUMPDEST PUSH1 0x20 PUSH1 0x40 MLOAD DUP1 DUP4 SUB DUP2 PUSH1 0x0 DUP8 GAS CALL ISZERO DUP1 ISZERO PUSH2 0x8D6 JUMPI RETURNDATASIZE PUSH1 0x0 DUP1 RETURNDATACOPY RETURNDATASIZE PUSH1 0x0 REVERT JUMPDEST POP POP POP POP PUSH1 0x40 MLOAD RETURNDATASIZE PUSH1 0x1F NOT PUSH1 0x1F DUP3 ADD AND DUP3 ADD DUP1 PUSH1 0x40 MSTORE POP DUP2 ADD SWAP1 PUSH2 0x8FA SWAP2 SWAP1 PUSH2 0xD90 JUMP JUMPDEST PUSH2 0x939 JUMPI PUSH1 0x40 MLOAD PUSH32 0x8C379A000000000000000000000000000000000000000000000000000000000 DUP2 MSTORE PUSH1 0x4 ADD PUSH2 0x930 SWAP1 PUSH2 0xF83 JUMP JUMPDEST PUSH1 0x40 MLOAD DUP1 SWAP2 SUB SWAP1 REVERT JUMPDEST DUP1 PUSH1 0x1 PUSH1 0x0 CALLER PUSH20 0xFFFFFFFFFFFFFFFFFFFFFFFFFFFFFFFFFFFFFFFF AND PUSH20 0xFFFFFFFFFFFFFFFFFFFFFFFFFFFFFFFFFFFFFFFF AND DUP2 MSTORE PUSH1 0x20 ADD SWAP1 DUP2 MSTORE PUSH1 0x20 ADD PUSH1 0x0 KECCAK256 PUSH1 0x0 ADD PUSH1 0x0 DUP3 DUP3 SLOAD PUSH2 0x98B SWAP2 SWAP1 PUSH2 0xCEC JUMP JUMPDEST SWAP3 POP POP DUP2 SWAP1 SSTORE POP TIMESTAMP PUSH1 0x1 PUSH1 0x0 CALLER PUSH20 0xFFFFFFFFFFFFFFFFFFFFFFFFFFFFFFFFFFFFFFFF AND PUSH20 0xFFFFFFFFFFFFFFFFFFFFFFFFFFFFFFFFFFFFFFFF AND DUP2 MSTORE PUSH1 0x20 ADD SWAP1 DUP2 MSTORE PUSH1 0x20 ADD PUSH1 0x0 KECCAK256 PUSH1 0x2 ADD DUP2 SWAP1 SSTORE POP POP JUMP JUMPDEST PUSH1 0x40 MLOAD DUP1 PUSH1 0x60 ADD PUSH1 0x40 MSTORE DUP1 PUSH1 0x0 DUP2 MSTORE PUSH1 0x20 ADD PUSH1 0x0 DUP2 MSTORE PUSH1 0x20 ADD PUSH1 0x0 DUP2 MSTORE POP SWAP1 JUMP JUMPDEST PUSH1 0x0 PUSH20 0xFFFFFFFFFFFFFFFFFFFFFFFFFFFFFFFFFFFFFFFF DUP3 AND SWAP1 POP SWAP2 SWAP1 POP JUMP JUMPDEST PUSH1 0x0 DUP2 SWAP1 POP SWAP2 SWAP1 POP JUMP JUMPDEST PUSH1 0x0 PUSH2 0xA42 PUSH2 0xA3D PUSH2 0xA38 DUP5 PUSH2 0x9FD JUMP JUMPDEST PUSH2 0xA1D JUMP JUMPDEST PUSH2 0x9FD JUMP JUMPDEST SWAP1 POP SWAP2 SWAP1 POP JUMP JUMPDEST PUSH1 0x0 PUSH2 0xA54 DUP3 PUSH2 0xA27 JUMP JUMPDEST SWAP1 POP SWAP2 SWAP1 POP JUMP JUMPDEST PUSH1 0x0 PUSH2 0xA66 DUP3 PUSH2 0xA49 JUMP JUMPDEST SWAP1 POP SWAP2 SWAP1 POP JUMP JUMPDEST PUSH2 0xA76 DUP2 PUSH2 0xA5B JUMP JUMPDEST DUP3 MSTORE POP POP JUMP JUMPDEST PUSH1 0x0 PUSH1 0x20 DUP3 ADD SWAP1 POP PUSH2 0xA91 PUSH1 0x0 DUP4 ADD DUP5 PUSH2 0xA6D JUMP JUMPDEST SWAP3 SWAP2 POP POP JUMP JUMPDEST PUSH1 0x0 DUP2 SWAP1 POP SWAP2 SWAP1 POP JUMP JUMPDEST PUSH2 0xAAA DUP2 PUSH2 0xA97 JUMP JUMPDEST DUP3 MSTORE POP POP JUMP JUMPDEST PUSH1 0x0 PUSH1 0x20 DUP3 ADD SWAP1 POP PUSH2 0xAC5 PUSH1 0x0 DUP4 ADD DUP5 PUSH2 0xAA1 JUMP JUMPDEST SWAP3 SWAP2 POP POP JUMP JUMPDEST PUSH1 0x0 DUP1 REVERT JUMPDEST PUSH1 0x0 PUSH2 0xADB DUP3 PUSH2 0x9FD JUMP JUMPDEST SWAP1 POP SWAP2 SWAP1 POP JUMP JUMPDEST PUSH2 0xAEB DUP2 PUSH2 0xAD0 JUMP JUMPDEST DUP2 EQ PUSH2 0xAF6 JUMPI PUSH1 0x0 DUP1 REVERT JUMPDEST POP JUMP JUMPDEST PUSH1 0x0 DUP2 CALLDATALOAD SWAP1 POP PUSH2 0xB08 DUP2 PUSH2 0xAE2 JUMP JUMPDEST SWAP3 SWAP2 POP POP JUMP JUMPDEST PUSH1 0x0 PUSH1 0x20 DUP3 DUP5 SUB SLT ISZERO PUSH2 0xB24 JUMPI PUSH2 0xB23 PUSH2 0xACB JUMP JUMPDEST JUMPDEST PUSH1 0x0 PUSH2 0xB32 DUP5 DUP3 DUP6 ADD PUSH2 0xAF9 JUMP JUMPDEST SWAP2 POP POP SWAP3 SWAP2 POP POP JUMP JUMPDEST PUSH2 0xB44 DUP2 PUSH2 0xA97 JUMP JUMPDEST DUP3 MSTORE POP POP JUMP JUMPDEST PUSH1 0x60 DUP3 ADD PUSH1 0x0 DUP3 ADD MLOAD PUSH2 0xB60 PUSH1 0x0 DUP6 ADD DUP3 PUSH2 0xB3B JUMP JUMPDEST POP PUSH1 0x20 DUP3 ADD MLOAD PUSH2 0xB73 PUSH1 0x20 DUP6 ADD DUP3 PUSH2 0xB3B JUMP JUMPDEST POP PUSH1 0x40 DUP3 ADD MLOAD PUSH2 0xB86 PUSH1 0x40 DUP6 ADD DUP3 PUSH2 0xB3B JUMP JUMPDEST POP POP POP POP JUMP JUMPDEST PUSH1 0x0 PUSH1 0x60 DUP3 ADD SWAP1 POP PUSH2 0xBA1 PUSH1 0x0 DUP4 ADD DUP5 PUSH2 0xB4A JUMP JUMPDEST SWAP3 SWAP2 POP POP JUMP JUMPDEST PUSH2 0xBB0 DUP2 PUSH2 0xA97 JUMP JUMPDEST DUP2 EQ PUSH2 0xBBB JUMPI PUSH1 0x0 DUP1 REVERT JUMPDEST POP JUMP JUMPDEST PUSH1 0x0 DUP2 CALLDATALOAD SWAP1 POP PUSH2 0xBCD DUP2 PUSH2 0xBA7 JUMP JUMPDEST SWAP3 SWAP2 POP POP JUMP JUMPDEST PUSH1 0x0 PUSH1 0x20 DUP3 DUP5 SUB SLT ISZERO PUSH2 0xBE9 JUMPI PUSH2 0xBE8 PUSH2 0xACB JUMP JUMPDEST JUMPDEST PUSH1 0x0 PUSH2 0xBF7 DUP5 DUP3 DUP6 ADD PUSH2 0xBBE JUMP JUMPDEST SWAP2 POP POP SWAP3 SWAP2 POP POP JUMP JUMPDEST PUSH1 0x0 DUP1 PUSH1 0x40 DUP4 DUP6 SUB SLT ISZERO PUSH2 0xC17 JUMPI PUSH2 0xC16 PUSH2 0xACB JUMP JUMPDEST JUMPDEST PUSH1 0x0 PUSH2 0xC25 DUP6 DUP3 DUP7 ADD PUSH2 0xBBE JUMP JUMPDEST SWAP3 POP POP PUSH1 0x20 PUSH2 0xC36 DUP6 DUP3 DUP7 ADD PUSH2 0xBBE JUMP JUMPDEST SWAP2 POP POP SWAP3 POP SWAP3 SWAP1 POP JUMP JUMPDEST PUSH1 0x0 DUP3 DUP3 MSTORE PUSH1 0x20 DUP3 ADD SWAP1 POP SWAP3 SWAP2 POP POP JUMP JUMPDEST PUSH32 0x4E6F206465706F73697420666F756E6400000000000000000000000000000000 PUSH1 0x0 DUP3 ADD MSTORE POP JUMP JUMPDEST PUSH1 0x0 PUSH2 0xC87 PUSH1 0x10 DUP4 PUSH2 0xC40 JUMP JUMPDEST SWAP2 POP PUSH2 0xC92 DUP3 PUSH2 0xC51 JUMP JUMPDEST PUSH1 0x20 DUP3 ADD SWAP1 POP SWAP2 SWAP1 POP JUMP JUMPDEST PUSH1 0x0 PUSH1 0x20 DUP3 ADD SWAP1 POP DUP2 DUP2 SUB PUSH1 0x0 DUP4 ADD MSTORE PUSH2 0xCB6 DUP2 PUSH2 0xC7A JUMP JUMPDEST SWAP1 POP SWAP2 SWAP1 POP JUMP JUMPDEST PUSH32 0x4E487B7100000000000000000000000000000000000000000000000000000000 PUSH1 0x0 MSTORE PUSH1 0x11 PUSH1 0x4 MSTORE PUSH1 0x24 PUSH1 0x0 REVERT JUMPDEST PUSH1 0x0 PUSH2 0xCF7 DUP3 PUSH2 0xA97 JUMP JUMPDEST SWAP2 POP PUSH2 0xD02 DUP4 PUSH2 0xA97 JUMP JUMPDEST SWAP3 POP DUP3 DUP3 ADD SWAP1 POP DUP1 DUP3 GT ISZERO PUSH2 0xD1A JUMPI PUSH2 0xD19 PUSH2 0xCBD JUMP JUMPDEST JUMPDEST SWAP3 SWAP2 POP POP JUMP JUMPDEST PUSH2 0xD29 DUP2 PUSH2 0xAD0 JUMP JUMPDEST DUP3 MSTORE POP POP JUMP JUMPDEST PUSH1 0x0 PUSH1 0x40 DUP3 ADD SWAP1 POP PUSH2 0xD44 PUSH1 0x0 DUP4 ADD DUP6 PUSH2 0xD20 JUMP JUMPDEST PUSH2 0xD51 PUSH1 0x20 DUP4 ADD DUP5 PUSH2 0xAA1 JUMP JUMPDEST SWAP4 SWAP3 POP POP POP JUMP JUMPDEST PUSH1 0x0 DUP2 ISZERO ISZERO SWAP1 POP SWAP2 SWAP1 POP JUMP JUMPDEST PUSH2 0xD6D DUP2 PUSH2 0xD58 JUMP JUMPDEST DUP2 EQ PUSH2 0xD78 JUMPI PUSH1 0x0 DUP1 REVERT JUMPDEST POP JUMP JUMPDEST PUSH1 0x0 DUP2 MLOAD SWAP1 POP PUSH2 0xD8A DUP2 PUSH2 0xD64 JUMP JUMPDEST SWAP3 SWAP2 POP POP JUMP JUMPDEST PUSH1 0x0 PUSH1 0x20 DUP3 DUP5 SUB SLT ISZERO PUSH2 0xDA6 JUMPI PUSH2 0xDA5 PUSH2 0xACB JUMP JUMPDEST JUMPDEST PUSH1 0x0 PUSH2 0xDB4 DUP5 DUP3 DUP6 ADD PUSH2 0xD7B JUMP JUMPDEST SWAP2 POP POP SWAP3 SWAP2 POP POP JUMP JUMPDEST PUSH32 0x5769746864726177616C206661696C6564000000000000000000000000000000 PUSH1 0x0 DUP3 ADD MSTORE POP JUMP JUMPDEST PUSH1 0x0 PUSH2 0xDF3 PUSH1 0x11 DUP4 PUSH2 0xC40 JUMP JUMPDEST SWAP2 POP PUSH2 0xDFE DUP3 PUSH2 0xDBD JUMP JUMPDEST PUSH1 0x20 DUP3 ADD SWAP1 POP SWAP2 SWAP1 POP JUMP JUMPDEST PUSH1 0x0 PUSH1 0x20 DUP3 ADD SWAP1 POP DUP2 DUP2 SUB PUSH1 0x0 DUP4 ADD MSTORE PUSH2 0xE22 DUP2 PUSH2 0xDE6 JUMP JUMPDEST SWAP1 POP SWAP2 SWAP1 POP JUMP JUMPDEST PUSH1 0x0 PUSH2 0xE34 DUP3 PUSH2 0xA97 JUMP JUMPDEST SWAP2 POP PUSH2 0xE3F DUP4 PUSH2 0xA97 JUMP JUMPDEST SWAP3 POP DUP3 DUP3 MUL PUSH2 0xE4D DUP2 PUSH2 0xA97 JUMP JUMPDEST SWAP2 POP DUP3 DUP3 DIV DUP5 EQ DUP4 ISZERO OR PUSH2 0xE64 JUMPI PUSH2 0xE63 PUSH2 0xCBD JUMP JUMPDEST JUMPDEST POP SWAP3 SWAP2 POP POP JUMP JUMPDEST PUSH32 0x4E487B7100000000000000000000000000000000000000000000000000000000 PUSH1 0x0 MSTORE PUSH1 0x12 PUSH1 0x4 MSTORE PUSH1 0x24 PUSH1 0x0 REVERT JUMPDEST PUSH1 0x0 PUSH2 0xEA5 DUP3 PUSH2 0xA97 JUMP JUMPDEST SWAP2 POP PUSH2 0xEB0 DUP4 PUSH2 0xA97 JUMP JUMPDEST SWAP3 POP DUP3 PUSH2 0xEC0 JUMPI PUSH2 0xEBF PUSH2 0xE6B JUMP JUMPDEST JUMPDEST DUP3 DUP3 DIV SWAP1 POP SWAP3 SWAP2 POP POP JUMP JUMPDEST PUSH32 0x496E73756666696369656E7420636F6C6C61746572616C000000000000000000 PUSH1 0x0 DUP3 ADD MSTORE POP JUMP JUMPDEST PUSH1 0x0 PUSH2 0xF01 PUSH1 0x17 DUP4 PUSH2 0xC40 JUMP JUMPDEST SWAP2 POP PUSH2 0xF0C DUP3 PUSH2 0xECB JUMP JUMPDEST PUSH1 0x20 DUP3 ADD SWAP1 POP SWAP2 SWAP1 POP JUMP JUMPDEST PUSH1 0x0 PUSH1 0x20 DUP3 ADD SWAP1 POP DUP2 DUP2 SUB PUSH1 0x0 DUP4 ADD MSTORE PUSH2 0xF30 DUP2 PUSH2 0xEF4 JUMP JUMPDEST SWAP1 POP SWAP2 SWAP1 POP JUMP JUMPDEST PUSH32 0x5472616E73666572206661696C65640000000000000000000000000000000000 PUSH1 0x0 DUP3 ADD MSTORE POP JUMP JUMPDEST PUSH1 0x0 PUSH2 0xF6D PUSH1 0xF DUP4 PUSH2 0xC40 JUMP JUMPDEST SWAP2 POP PUSH2 0xF78 DUP3 PUSH2 0xF37 JUMP JUMPDEST PUSH1 0x20 DUP3 ADD SWAP1 POP SWAP2 SWAP1 POP JUMP JUMPDEST PUSH1 0x0 PUSH1 0x20 DUP3 ADD SWAP1 POP DUP2 DUP2 SUB PUSH1 0x0 DUP4 ADD MSTORE PUSH2 0xF9C DUP2 PUSH2 0xF60 JUMP JUMPDEST SWAP1 POP SWAP2 SWAP1 POP JUMP JUMPDEST PUSH1 0x0 PUSH2 0xFAE DUP3 PUSH2 0xA97 JUMP JUMPDEST SWAP2 POP PUSH2 0xFB9 DUP4 PUSH2 0xA97 JUMP JUMPDEST SWAP3 POP DUP3 DUP3 SUB SWAP1 POP DUP2 DUP2 GT ISZERO PUSH2 0xFD1 JUMPI PUSH2 0xFD0 PUSH2 0xCBD JUMP JUMPDEST JUMPDEST SWAP3 SWAP2 POP POP JUMP JUMPDEST PUSH1 0x0 PUSH1 0x60 DUP3 ADD SWAP1 POP PUSH2 0xFEC PUSH1 0x0 DUP4 ADD DUP7 PUSH2 0xD20 JUMP JUMPDEST PUSH2 0xFF9 PUSH1 0x20 DUP4 ADD DUP6 PUSH2 0xD20 JUMP JUMPDEST PUSH2 0x1006 PUSH1 0x40 DUP4 ADD DUP5 PUSH2 0xAA1 JUMP JUMPDEST SWAP5 SWAP4 POP POP POP POP JUMP INVALID LOG2 PUSH5 0x6970667358 0x22 SLT KECCAK256 0xAC SWAP1 0xC7 PUSH10 0x3C26C01A800157D410FC EXTCODESIZE 0x5E 0xB8 PUSH29 0xB4541578F7F35DA02CF6DAFD7D7064736F6C6343000814003300000000 "},"methodIdentifiers":{"COLLATERAL_FACTOR()":"17f49e05","ETH_TO_USDC_RATE()":"573c16f6","INTEREST_RATE()":"5b72a33a","borrowUSDC(uint256)":"7a9fe9ff","calculateInterest(uint256,uint256)":"efdd7c07","depositETH()":"f6326fb3","depositUSDC(uint256)":"f688bcfb","getDepositDetails(address)":"52608f7f","usdcToken()":"11eac855","withdrawFunds()":"24600fc3"}}}}}